{
  "_format": "hh-sol-artifact-1",
  "contractName": "AzukiApeSocialClub",
  "sourceName": "contracts/AzukiApe.sol",
  "abi": [
    {
      "inputs": [
        {
          "internalType": "string",
          "name": "__tokenURI",
          "type": "string"
        },
        {
          "internalType": "uint256",
          "name": "_price",
          "type": "uint256"
        },
        {
          "internalType": "uint256",
          "name": "_wlPrice",
          "type": "uint256"
        },
        {
          "internalType": "address[]",
          "name": "payees",
          "type": "address[]"
        },
        {
          "internalType": "uint256[]",
          "name": "shares",
          "type": "uint256[]"
        }
      ],
      "stateMutability": "nonpayable",
      "type": "constructor"
    },
    {
      "anonymous": false,
      "inputs": [
        {
          "indexed": true,
          "internalType": "address",
          "name": "owner",
          "type": "address"
        },
        {
          "indexed": true,
          "internalType": "address",
          "name": "approved",
          "type": "address"
        },
        {
          "indexed": true,
          "internalType": "uint256",
          "name": "tokenId",
          "type": "uint256"
        }
      ],
      "name": "Approval",
      "type": "event"
    },
    {
      "anonymous": false,
      "inputs": [
        {
          "indexed": true,
          "internalType": "address",
          "name": "owner",
          "type": "address"
        },
        {
          "indexed": true,
          "internalType": "address",
          "name": "operator",
          "type": "address"
        },
        {
          "indexed": false,
          "internalType": "bool",
          "name": "approved",
          "type": "bool"
        }
      ],
      "name": "ApprovalForAll",
      "type": "event"
    },
    {
      "anonymous": false,
      "inputs": [
        {
          "indexed": true,
          "internalType": "contract IERC20",
          "name": "token",
          "type": "address"
        },
        {
          "indexed": false,
          "internalType": "address",
          "name": "to",
          "type": "address"
        },
        {
          "indexed": false,
          "internalType": "uint256",
          "name": "amount",
          "type": "uint256"
        }
      ],
      "name": "ERC20PaymentReleased",
      "type": "event"
    },
    {
      "anonymous": false,
      "inputs": [
        {
          "indexed": true,
          "internalType": "address",
          "name": "previousOwner",
          "type": "address"
        },
        {
          "indexed": true,
          "internalType": "address",
          "name": "newOwner",
          "type": "address"
        }
      ],
      "name": "OwnershipTransferred",
      "type": "event"
    },
    {
      "anonymous": false,
      "inputs": [
        {
          "indexed": false,
          "internalType": "address",
          "name": "account",
          "type": "address"
        }
      ],
      "name": "Paused",
      "type": "event"
    },
    {
      "anonymous": false,
      "inputs": [
        {
          "indexed": false,
          "internalType": "address",
          "name": "account",
          "type": "address"
        },
        {
          "indexed": false,
          "internalType": "uint256",
          "name": "shares",
          "type": "uint256"
        }
      ],
      "name": "PayeeAdded",
      "type": "event"
    },
    {
      "anonymous": false,
      "inputs": [
        {
          "indexed": false,
          "internalType": "address",
          "name": "from",
          "type": "address"
        },
        {
          "indexed": false,
          "internalType": "uint256",
          "name": "amount",
          "type": "uint256"
        }
      ],
      "name": "PaymentReceived",
      "type": "event"
    },
    {
      "anonymous": false,
      "inputs": [
        {
          "indexed": false,
          "internalType": "address",
          "name": "to",
          "type": "address"
        },
        {
          "indexed": false,
          "internalType": "uint256",
          "name": "amount",
          "type": "uint256"
        }
      ],
      "name": "PaymentReleased",
      "type": "event"
    },
    {
      "anonymous": false,
      "inputs": [
        {
          "indexed": true,
          "internalType": "address",
          "name": "from",
          "type": "address"
        },
        {
          "indexed": true,
          "internalType": "address",
          "name": "to",
          "type": "address"
        },
        {
          "indexed": true,
          "internalType": "uint256",
          "name": "tokenId",
          "type": "uint256"
        }
      ],
      "name": "Transfer",
      "type": "event"
    },
    {
      "anonymous": false,
      "inputs": [
        {
          "indexed": false,
          "internalType": "address",
          "name": "account",
          "type": "address"
        }
      ],
      "name": "Unpaused",
      "type": "event"
    },
    {
      "inputs": [
        {
          "internalType": "address",
          "name": "wallet",
          "type": "address"
        },
        {
          "internalType": "uint256",
          "name": "amount",
          "type": "uint256"
        }
      ],
      "name": "airdrop",
      "outputs": [],
      "stateMutability": "nonpayable",
      "type": "function"
    },
    {
      "inputs": [
        {
          "internalType": "address",
          "name": "to",
          "type": "address"
        },
        {
          "internalType": "uint256",
          "name": "tokenId",
          "type": "uint256"
        }
      ],
      "name": "approve",
      "outputs": [],
      "stateMutability": "nonpayable",
      "type": "function"
    },
    {
      "inputs": [
        {
          "internalType": "address",
          "name": "owner",
          "type": "address"
        }
      ],
      "name": "balanceOf",
      "outputs": [
        {
          "internalType": "uint256",
          "name": "",
          "type": "uint256"
        }
      ],
      "stateMutability": "view",
      "type": "function"
    },
    {
      "inputs": [],
      "name": "baseTokenURI",
      "outputs": [
        {
          "internalType": "string",
          "name": "",
          "type": "string"
        }
      ],
      "stateMutability": "view",
      "type": "function"
    },
    {
      "inputs": [],
      "name": "claim",
      "outputs": [],
      "stateMutability": "nonpayable",
      "type": "function"
    },
    {
      "inputs": [
        {
          "internalType": "uint256",
          "name": "tokenId",
          "type": "uint256"
        }
      ],
      "name": "getApproved",
      "outputs": [
        {
          "internalType": "address",
          "name": "",
          "type": "address"
        }
      ],
      "stateMutability": "view",
      "type": "function"
    },
    {
      "inputs": [
        {
          "internalType": "bytes32[]",
          "name": "_proof",
          "type": "bytes32[]"
        },
        {
          "internalType": "address",
          "name": "_address",
          "type": "address"
        }
      ],
      "name": "isAllowed",
      "outputs": [
        {
          "internalType": "bool",
          "name": "",
          "type": "bool"
        }
      ],
      "stateMutability": "view",
      "type": "function"
    },
    {
      "inputs": [
        {
          "internalType": "address",
          "name": "owner",
          "type": "address"
        },
        {
          "internalType": "address",
          "name": "operator",
          "type": "address"
        }
      ],
      "name": "isApprovedForAll",
      "outputs": [
        {
          "internalType": "bool",
          "name": "",
          "type": "bool"
        }
      ],
      "stateMutability": "view",
      "type": "function"
    },
    {
      "inputs": [],
      "name": "merkleRoot",
      "outputs": [
        {
          "internalType": "bytes32",
          "name": "",
          "type": "bytes32"
        }
      ],
      "stateMutability": "view",
      "type": "function"
    },
    {
      "inputs": [
        {
          "internalType": "uint256",
          "name": "amount",
          "type": "uint256"
        },
        {
          "internalType": "bytes32[]",
          "name": "proof",
          "type": "bytes32[]"
        }
      ],
      "name": "mint",
      "outputs": [],
      "stateMutability": "payable",
      "type": "function"
    },
    {
      "inputs": [],
      "name": "name",
      "outputs": [
        {
          "internalType": "string",
          "name": "",
          "type": "string"
        }
      ],
      "stateMutability": "view",
      "type": "function"
    },
    {
      "inputs": [],
      "name": "nextOwnerToExplicitlySet",
      "outputs": [
        {
          "internalType": "uint256",
          "name": "",
          "type": "uint256"
        }
      ],
      "stateMutability": "view",
      "type": "function"
    },
    {
      "inputs": [
        {
          "internalType": "address",
          "name": "owner",
          "type": "address"
        }
      ],
      "name": "owned",
      "outputs": [
        {
          "internalType": "uint256[]",
          "name": "",
          "type": "uint256[]"
        }
      ],
      "stateMutability": "view",
      "type": "function"
    },
    {
      "inputs": [],
      "name": "owner",
      "outputs": [
        {
          "internalType": "address",
          "name": "",
          "type": "address"
        }
      ],
      "stateMutability": "view",
      "type": "function"
    },
    {
      "inputs": [
        {
          "internalType": "uint256",
          "name": "tokenId",
          "type": "uint256"
        }
      ],
      "name": "ownerOf",
      "outputs": [
        {
          "internalType": "address",
          "name": "",
          "type": "address"
        }
      ],
      "stateMutability": "view",
      "type": "function"
    },
    {
      "inputs": [],
      "name": "paused",
      "outputs": [
        {
          "internalType": "bool",
          "name": "",
          "type": "bool"
        }
      ],
      "stateMutability": "view",
      "type": "function"
    },
    {
      "inputs": [
        {
          "internalType": "uint256",
          "name": "index",
          "type": "uint256"
        }
      ],
      "name": "payee",
      "outputs": [
        {
          "internalType": "address",
          "name": "",
          "type": "address"
        }
      ],
      "stateMutability": "view",
      "type": "function"
    },
    {
      "inputs": [],
      "name": "price",
      "outputs": [
        {
          "internalType": "uint256",
          "name": "",
          "type": "uint256"
        }
      ],
      "stateMutability": "view",
      "type": "function"
    },
    {
      "inputs": [
        {
          "internalType": "address payable",
          "name": "account",
          "type": "address"
        }
      ],
      "name": "release",
      "outputs": [],
      "stateMutability": "nonpayable",
      "type": "function"
    },
    {
      "inputs": [
        {
          "internalType": "contract IERC20",
          "name": "token",
          "type": "address"
        },
        {
          "internalType": "address",
          "name": "account",
          "type": "address"
        }
      ],
      "name": "release",
      "outputs": [],
      "stateMutability": "nonpayable",
      "type": "function"
    },
    {
      "inputs": [
        {
          "internalType": "contract IERC20",
          "name": "token",
          "type": "address"
        },
        {
          "internalType": "address",
          "name": "account",
          "type": "address"
        }
      ],
      "name": "released",
      "outputs": [
        {
          "internalType": "uint256",
          "name": "",
          "type": "uint256"
        }
      ],
      "stateMutability": "view",
      "type": "function"
    },
    {
      "inputs": [
        {
          "internalType": "address",
          "name": "account",
          "type": "address"
        }
      ],
      "name": "released",
      "outputs": [
        {
          "internalType": "uint256",
          "name": "",
          "type": "uint256"
        }
      ],
      "stateMutability": "view",
      "type": "function"
    },
    {
      "inputs": [],
      "name": "renounceOwnership",
      "outputs": [],
      "stateMutability": "nonpayable",
      "type": "function"
    },
    {
      "inputs": [],
      "name": "requireAllowlist",
      "outputs": [
        {
          "internalType": "bool",
          "name": "",
          "type": "bool"
        }
      ],
      "stateMutability": "view",
      "type": "function"
    },
    {
      "inputs": [
        {
          "internalType": "address",
          "name": "from",
          "type": "address"
        },
        {
          "internalType": "address",
          "name": "to",
          "type": "address"
        },
        {
          "internalType": "uint256",
          "name": "tokenId",
          "type": "uint256"
        }
      ],
      "name": "safeTransferFrom",
      "outputs": [],
      "stateMutability": "nonpayable",
      "type": "function"
    },
    {
      "inputs": [
        {
          "internalType": "address",
          "name": "from",
          "type": "address"
        },
        {
          "internalType": "address",
          "name": "to",
          "type": "address"
        },
        {
          "internalType": "uint256",
          "name": "tokenId",
          "type": "uint256"
        },
        {
          "internalType": "bytes",
          "name": "_data",
          "type": "bytes"
        }
      ],
      "name": "safeTransferFrom",
      "outputs": [],
      "stateMutability": "nonpayable",
      "type": "function"
    },
    {
      "inputs": [
        {
          "internalType": "address",
          "name": "operator",
          "type": "address"
        },
        {
          "internalType": "bool",
          "name": "approved",
          "type": "bool"
        }
      ],
      "name": "setApprovalForAll",
      "outputs": [],
      "stateMutability": "nonpayable",
      "type": "function"
    },
    {
      "inputs": [
        {
          "internalType": "bytes32",
          "name": "root",
          "type": "bytes32"
        }
      ],
      "name": "setMerkleRoot",
      "outputs": [],
      "stateMutability": "nonpayable",
      "type": "function"
    },
    {
      "inputs": [
        {
          "internalType": "bool",
          "name": "pause",
          "type": "bool"
        }
      ],
      "name": "setPause",
      "outputs": [],
      "stateMutability": "nonpayable",
      "type": "function"
    },
    {
      "inputs": [
        {
          "internalType": "uint256",
          "name": "amount",
          "type": "uint256"
        }
      ],
      "name": "setPrice",
      "outputs": [],
      "stateMutability": "nonpayable",
      "type": "function"
    },
    {
      "inputs": [
        {
          "internalType": "bool",
          "name": "value",
          "type": "bool"
        }
      ],
      "name": "setRequireAllowlist",
      "outputs": [],
      "stateMutability": "nonpayable",
      "type": "function"
    },
    {
      "inputs": [
        {
          "internalType": "string",
          "name": "uri",
          "type": "string"
        }
      ],
      "name": "setTokenURI",
      "outputs": [],
      "stateMutability": "nonpayable",
      "type": "function"
    },
    {
      "inputs": [
        {
          "internalType": "uint256",
          "name": "amount",
          "type": "uint256"
        }
      ],
      "name": "setWLPrice",
      "outputs": [],
      "stateMutability": "nonpayable",
      "type": "function"
    },
    {
      "inputs": [
        {
          "internalType": "address",
          "name": "account",
          "type": "address"
        }
      ],
      "name": "shares",
      "outputs": [
        {
          "internalType": "uint256",
          "name": "",
          "type": "uint256"
        }
      ],
      "stateMutability": "view",
      "type": "function"
    },
    {
      "inputs": [
        {
          "internalType": "bytes4",
          "name": "interfaceId",
          "type": "bytes4"
        }
      ],
      "name": "supportsInterface",
      "outputs": [
        {
          "internalType": "bool",
          "name": "",
          "type": "bool"
        }
      ],
      "stateMutability": "view",
      "type": "function"
    },
    {
      "inputs": [],
      "name": "symbol",
      "outputs": [
        {
          "internalType": "string",
          "name": "",
          "type": "string"
        }
      ],
      "stateMutability": "view",
      "type": "function"
    },
    {
      "inputs": [
        {
          "internalType": "uint256",
          "name": "index",
          "type": "uint256"
        }
      ],
      "name": "tokenByIndex",
      "outputs": [
        {
          "internalType": "uint256",
          "name": "",
          "type": "uint256"
        }
      ],
      "stateMutability": "view",
      "type": "function"
    },
    {
      "inputs": [
        {
          "internalType": "address",
          "name": "owner",
          "type": "address"
        },
        {
          "internalType": "uint256",
          "name": "index",
          "type": "uint256"
        }
      ],
      "name": "tokenOfOwnerByIndex",
      "outputs": [
        {
          "internalType": "uint256",
          "name": "",
          "type": "uint256"
        }
      ],
      "stateMutability": "view",
      "type": "function"
    },
    {
      "inputs": [
        {
          "internalType": "uint256",
          "name": "_tokenId",
          "type": "uint256"
        }
      ],
      "name": "tokenURI",
      "outputs": [
        {
          "internalType": "string",
          "name": "",
          "type": "string"
        }
      ],
      "stateMutability": "view",
      "type": "function"
    },
    {
      "inputs": [
        {
          "internalType": "contract IERC20",
          "name": "token",
          "type": "address"
        }
      ],
      "name": "totalReleased",
      "outputs": [
        {
          "internalType": "uint256",
          "name": "",
          "type": "uint256"
        }
      ],
      "stateMutability": "view",
      "type": "function"
    },
    {
      "inputs": [],
      "name": "totalReleased",
      "outputs": [
        {
          "internalType": "uint256",
          "name": "",
          "type": "uint256"
        }
      ],
      "stateMutability": "view",
      "type": "function"
    },
    {
      "inputs": [],
      "name": "totalShares",
      "outputs": [
        {
          "internalType": "uint256",
          "name": "",
          "type": "uint256"
        }
      ],
      "stateMutability": "view",
      "type": "function"
    },
    {
      "inputs": [],
      "name": "totalSupply",
      "outputs": [
        {
          "internalType": "uint256",
          "name": "",
          "type": "uint256"
        }
      ],
      "stateMutability": "view",
      "type": "function"
    },
    {
      "inputs": [
        {
          "internalType": "address",
          "name": "from",
          "type": "address"
        },
        {
          "internalType": "address",
          "name": "to",
          "type": "address"
        },
        {
          "internalType": "uint256",
          "name": "tokenId",
          "type": "uint256"
        }
      ],
      "name": "transferFrom",
      "outputs": [],
      "stateMutability": "nonpayable",
      "type": "function"
    },
    {
      "inputs": [
        {
          "internalType": "address",
          "name": "newOwner",
          "type": "address"
        }
      ],
      "name": "transferOwnership",
      "outputs": [],
      "stateMutability": "nonpayable",
      "type": "function"
    },
    {
      "inputs": [],
      "name": "wlPrice",
      "outputs": [
        {
          "internalType": "uint256",
          "name": "",
          "type": "uint256"
        }
      ],
      "stateMutability": "view",
      "type": "function"
    },
    {
      "stateMutability": "payable",
      "type": "receive"
    }
  ],
  "bytecode": "0x60a0604052600160005560006007553480156200001b57600080fd5b5060405162003c6b38038062003c6b8339810160408190526200003e91620006a4565b81816040518060400160405280601281526020017120bd3ab5b4a0b832a9b7b1b4b0b621b63ab160711b815250604051806040016040528060048152602001634141534360e01b815250600560008111620000f05760405162461bcd60e51b815260206004820152602760248201527f455243373231413a206d61782062617463682073697a65206d757374206265206044820152666e6f6e7a65726f60c81b60648201526084015b60405180910390fd5b825162000105906001906020860190620004f9565b5081516200011b906002906020850190620004f9565b5060805250506008805460ff1916600117905580518251146200019c5760405162461bcd60e51b815260206004820152603260248201527f5061796d656e7453706c69747465723a2070617965657320616e6420736861726044820152710cae640d8cadccee8d040dad2e6dac2e8c6d60731b6064820152608401620000e7565b6000825111620001ef5760405162461bcd60e51b815260206004820152601a60248201527f5061796d656e7453706c69747465723a206e6f207061796565730000000000006044820152606401620000e7565b60005b82518110156200025b5762000246838281518110620002155762000215620008aa565b6020026020010151838381518110620002325762000232620008aa565b6020026020010151620002b560201b60201c565b80620002528162000876565b915050620001f2565b5050506200027862000272620004a360201b60201c565b620004a7565b6011805460ff60a01b191690556001601255601384905560148390558451620002a9906015906020880190620004f9565b505050505050620008d6565b6001600160a01b038216620003225760405162461bcd60e51b815260206004820152602c60248201527f5061796d656e7453706c69747465723a206163636f756e74206973207468652060448201526b7a65726f206164647265737360a01b6064820152608401620000e7565b60008111620003745760405162461bcd60e51b815260206004820152601d60248201527f5061796d656e7453706c69747465723a207368617265732061726520300000006044820152606401620000e7565b6001600160a01b0382166000908152600c602052604090205415620003f05760405162461bcd60e51b815260206004820152602b60248201527f5061796d656e7453706c69747465723a206163636f756e7420616c726561647960448201526a206861732073686172657360a81b6064820152608401620000e7565b600e8054600181019091557fbb7b4a454dc3493923482f07822329ed19e8244eff582cc204f8554c3620c3fd0180546001600160a01b0319166001600160a01b0384169081179091556000908152600c60205260409020819055600a546200045a9082906200081e565b600a55604080516001600160a01b0384168152602081018390527f40c340f65e17194d14ddddb073d3c9f888e3cb52b5aae0c6c7706b4fbc905fac910160405180910390a15050565b3390565b601180546001600160a01b038381166001600160a01b0319831681179093556040519116919082907f8be0079c531659141344cd1fd0a4f28419497f9722a3daafe3b4186f6b6457e090600090a35050565b828054620005079062000839565b90600052602060002090601f0160209004810192826200052b576000855562000576565b82601f106200054657805160ff191683800117855562000576565b8280016001018555821562000576579182015b828111156200057657825182559160200191906001019062000559565b506200058492915062000588565b5090565b5b8082111562000584576000815560010162000589565b600082601f830112620005b157600080fd5b81516020620005ca620005c483620007f8565b620007c5565b80838252828201915082860187848660051b8901011115620005eb57600080fd5b6000805b86811015620006225782516001600160a01b03811681146200060f578283fd5b85529385019391850191600101620005ef565b509198975050505050505050565b600082601f8301126200064257600080fd5b8151602062000655620005c483620007f8565b80838252828201915082860187848660051b89010111156200067657600080fd5b60005b85811015620006975781518452928401929084019060010162000679565b5090979650505050505050565b600080600080600060a08688031215620006bd57600080fd5b85516001600160401b0380821115620006d557600080fd5b818801915088601f830112620006ea57600080fd5b815181811115620006ff57620006ff620008c0565b602062000715601f8301601f19168201620007c5565b8281528b828487010111156200072a57600080fd5b60005b838110156200074a5785810183015182820184015282016200072d565b838111156200075c5760008385840101525b50908a015160408b015160608c0151929a509098509650925050808211156200078457600080fd5b6200079289838a016200059f565b93506080880151915080821115620007a957600080fd5b50620007b88882890162000630565b9150509295509295909350565b604051601f8201601f191681016001600160401b0381118282101715620007f057620007f0620008c0565b604052919050565b60006001600160401b03821115620008145762000814620008c0565b5060051b60200190565b6000821982111562000834576200083462000894565b500190565b600181811c908216806200084e57607f821691505b602082108114156200087057634e487b7160e01b600052602260045260246000fd5b50919050565b60006000198214156200088d576200088d62000894565b5060010190565b634e487b7160e01b600052601160045260246000fd5b634e487b7160e01b600052603260045260246000fd5b634e487b7160e01b600052604160045260246000fd5b60805161336b6200090060003960008181611da901528181611dd3015261262e015261336b6000f3fe6080604052600436106102815760003560e01c80638b83209b1161014f578063bedb86fb116100c1578063d79779b21161007a578063d79779b21461079c578063e0df5b6f146107d2578063e33b7de3146107f2578063e985e9c514610807578063f2fde38b14610850578063f6a5b8e61461087057600080fd5b8063bedb86fb146106e5578063c7f8d01a14610705578063c87b56dd1461071b578063ce7c2ac21461073b578063d547cfb714610771578063d7224ba01461078657600080fd5b80639852595c116101135780639852595c14610619578063a035b1fe1461064f578063a22cb46514610665578063b1ab931714610685578063b88d4fde146106b2578063ba41b0c6146106d257600080fd5b80638b83209b1461058f5780638ba4cc3c146105af5780638da5cb5b146105cf57806391b7f5ed146105e457806395d89b411461060457600080fd5b8063406072a9116101f35780635c975abb116101ac5780635c975abb146104e55780636352211e146104fa57806370a082311461051a578063715018a61461053a5780637cb647591461054f5780637fac20941461056f57600080fd5b8063406072a91461043057806342842e0e14610450578063429766a91461047057806348b75044146104905780634e71d92d146104b05780634f6ccce7146104c557600080fd5b806318160ddd1161024557806318160ddd1461038657806319165587146103a557806323b872dd146103c55780632eb4a7ab146103e55780632f745c59146103fb5780633a98ef391461041b57600080fd5b806301ffc9a7146102c657806306fdde03146102fb578063081812fc1461031d578063095ea7b31461034a5780630c9a94d21461036c57600080fd5b366102c1577f6ef95f06320e7a25a04a175ca677b7052bdd97131872c2192525a629f51be77033346040516102b7929190612efc565b60405180910390a1005b600080fd5b3480156102d257600080fd5b506102e66102e1366004612cb3565b610890565b60405190151581526020015b60405180910390f35b34801561030757600080fd5b506103106108fd565b6040516102f29190612f96565b34801561032957600080fd5b5061033d610338366004612c9a565b61098f565b6040516102f29190612ee8565b34801561035657600080fd5b5061036a610365366004612bde565b610a1f565b005b34801561037857600080fd5b506008546102e69060ff1681565b34801561039257600080fd5b506000545b6040519081526020016102f2565b3480156103b157600080fd5b5061036a6103c0366004612a3a565b610b33565b3480156103d157600080fd5b5061036a6103e0366004612a90565b610c58565b3480156103f157600080fd5b5061039760095481565b34801561040757600080fd5b50610397610416366004612bde565b610c63565b34801561042757600080fd5b50600a54610397565b34801561043c57600080fd5b5061039761044b366004612a57565b610dd0565b34801561045c57600080fd5b5061036a61046b366004612a90565b610dfb565b34801561047c57600080fd5b5061036a61048b366004612c60565b610e16565b34801561049c57600080fd5b5061036a6104ab366004612a57565b610e59565b3480156104bc57600080fd5b5061036a61101d565b3480156104d157600080fd5b506103976104e0366004612c9a565b611028565b3480156104f157600080fd5b506102e661108a565b34801561050657600080fd5b5061033d610515366004612c9a565b61109a565b34801561052657600080fd5b50610397610535366004612a3a565b6110ac565b34801561054657600080fd5b5061036a61113d565b34801561055b57600080fd5b5061036a61056a366004612c9a565b611176565b34801561057b57600080fd5b506102e661058a366004612c0a565b6111ae565b34801561059b57600080fd5b5061033d6105aa366004612c9a565b611236565b3480156105bb57600080fd5b5061036a6105ca366004612bde565b611266565b3480156105db57600080fd5b5061033d6112e1565b3480156105f057600080fd5b5061036a6105ff366004612c9a565b6112f0565b34801561061057600080fd5b50610310611324565b34801561062557600080fd5b50610397610634366004612a3a565b6001600160a01b03166000908152600d602052604090205490565b34801561065b57600080fd5b5061039760135481565b34801561067157600080fd5b5061036a610680366004612bb0565b611333565b34801561069157600080fd5b506106a56106a0366004612a3a565b6113f8565b6040516102f29190612f52565b3480156106be57600080fd5b5061036a6106cd366004612ad1565b611499565b61036a6106e0366004612d77565b6114d2565b3480156106f157600080fd5b5061036a610700366004612c60565b6115fc565b34801561071157600080fd5b5061039760145481565b34801561072757600080fd5b50610310610736366004612c9a565b611641565b34801561074757600080fd5b50610397610756366004612a3a565b6001600160a01b03166000908152600c602052604090205490565b34801561077d57600080fd5b50610310611675565b34801561079257600080fd5b5061039760075481565b3480156107a857600080fd5b506103976107b7366004612a3a565b6001600160a01b03166000908152600f602052604090205490565b3480156107de57600080fd5b5061036a6107ed366004612ced565b611684565b3480156107fe57600080fd5b50600b54610397565b34801561081357600080fd5b506102e6610822366004612a57565b6001600160a01b03918216600090815260066020908152604080832093909416825291909152205460ff1690565b34801561085c57600080fd5b5061036a61086b366004612a3a565b6116bf565b34801561087c57600080fd5b5061036a61088b366004612c9a565b61175c565b60006001600160e01b031982166380ac58cd60e01b14806108c157506001600160e01b03198216635b5e139f60e01b145b806108dc57506001600160e01b0319821663780e9d6360e01b145b806108f757506301ffc9a760e01b6001600160e01b03198316145b92915050565b60606001805461090c9061323a565b80601f01602080910402602001604051908101604052809291908181526020018280546109389061323a565b80156109855780601f1061095a57610100808354040283529160200191610985565b820191906000526020600020905b81548152906001019060200180831161096857829003601f168201915b5050505050905090565b600061099c826000541190565b610a035760405162461bcd60e51b815260206004820152602d60248201527f455243373231413a20617070726f76656420717565727920666f72206e6f6e6560448201526c3c34b9ba32b73a103a37b5b2b760991b60648201526084015b60405180910390fd5b506000908152600560205260409020546001600160a01b031690565b6000610a2a8261109a565b9050806001600160a01b0316836001600160a01b03161415610a995760405162461bcd60e51b815260206004820152602260248201527f455243373231413a20617070726f76616c20746f2063757272656e74206f776e60448201526132b960f11b60648201526084016109fa565b336001600160a01b0382161480610ab55750610ab58133610822565b610b235760405162461bcd60e51b815260206004820152603960248201527f455243373231413a20617070726f76652063616c6c6572206973206e6f74206f6044820152781ddb995c881b9bdc88185c1c1c9bdd995908199bdc88185b1b603a1b60648201526084016109fa565b610b2e838383611790565b505050565b6001600160a01b0381166000908152600c6020526040902054610b685760405162461bcd60e51b81526004016109fa90612fa9565b6000610b73600b5490565b610b7d904761316d565b90506000610baa8383610ba5866001600160a01b03166000908152600d602052604090205490565b6117ec565b905080610bc95760405162461bcd60e51b81526004016109fa9061301a565b6001600160a01b0383166000908152600d602052604081208054839290610bf190849061316d565b9250508190555080600b6000828254610c0a919061316d565b90915550610c1a90508382611832565b7fdf20fd1e76bc69d672e4814fafb2c449bba3a5369d8359adf9e05e6fde87b0568382604051610c4b929190612efc565b60405180910390a1505050565b610b2e83838361194b565b6000610c6e836110ac565b8210610cc75760405162461bcd60e51b815260206004820152602260248201527f455243373231413a206f776e657220696e646578206f7574206f6620626f756e604482015261647360f01b60648201526084016109fa565b600080549080805b83811015610d70576000818152600360209081526040918290208251808401909352546001600160a01b038116808452600160a01b9091046001600160401b03169183019190915215610d2157805192505b876001600160a01b0316836001600160a01b03161415610d5d5786841415610d4f575093506108f792505050565b83610d5981613275565b9450505b5080610d6881613275565b915050610ccf565b5060405162461bcd60e51b815260206004820152602e60248201527f455243373231413a20756e61626c6520746f2067657420746f6b656e206f662060448201526d0deeedccae440c4f240d2dcc8caf60931b60648201526084016109fa565b6001600160a01b03918216600090815260106020908152604080832093909416825291909152205490565b610b2e83838360405180602001604052806000815250611499565b33610e1f6112e1565b6001600160a01b031614610e455760405162461bcd60e51b81526004016109fa906130ba565b6008805460ff191682151517905550565b50565b6001600160a01b0381166000908152600c6020526040902054610e8e5760405162461bcd60e51b81526004016109fa90612fa9565b6001600160a01b0382166000908152600f60205260408120546040516370a0823160e01b81526001600160a01b038516906370a0823190610ed3903090600401612ee8565b60206040518083038186803b158015610eeb57600080fd5b505afa158015610eff573d6000803e3d6000fd5b505050506040513d601f19601f82011682018060405250810190610f239190612d5e565b610f2d919061316d565b90506000610f408383610ba58787610dd0565b905080610f5f5760405162461bcd60e51b81526004016109fa9061301a565b6001600160a01b03808516600090815260106020908152604080832093871683529290529081208054839290610f9690849061316d565b90915550506001600160a01b0384166000908152600f602052604081208054839290610fc390849061316d565b90915550610fd49050848483611cd1565b836001600160a01b03167f3be5b7a71e84ed12875d241991c70855ac5817d847039e17a9d895c1ceb0f18a848360405161100f929190612efc565b60405180910390a250505050565b61102633610b33565b565b6000805482106110865760405162461bcd60e51b815260206004820152602360248201527f455243373231413a20676c6f62616c20696e646578206f7574206f6620626f756044820152626e647360e81b60648201526084016109fa565b5090565b601154600160a01b900460ff1690565b60006110a582611d27565b5192915050565b60006001600160a01b0382166111185760405162461bcd60e51b815260206004820152602b60248201527f455243373231413a2062616c616e636520717565727920666f7220746865207a60448201526a65726f206164647265737360a81b60648201526084016109fa565b506001600160a01b03166000908152600460205260409020546001600160801b031690565b336111466112e1565b6001600160a01b03161461116c5760405162461bcd60e51b81526004016109fa906130ba565b6110266000611ed0565b3361117f6112e1565b6001600160a01b0316146111a55760405162461bcd60e51b81526004016109fa906130ba565b610e5681600955565b6040516bffffffffffffffffffffffff19606083901b166020820152600090819060340160405160208183030381529060405280519060200120905061122b858580806020026020016040519081016040528093929190818152602001838360200280828437600092019190915250506009549150849050611f22565b9150505b9392505050565b6000600e828154811061124b5761124b6132d0565b6000918252602090912001546001600160a01b031692915050565b3361126f6112e1565b6001600160a01b0316146112955760405162461bcd60e51b81526004016109fa906130ba565b6112a2610d05600161316d565b816112ac60005490565b6112b6919061316d565b106112d35760405162461bcd60e51b81526004016109fa90612fef565b6112dd8282611f38565b5050565b6011546001600160a01b031690565b336112f96112e1565b6001600160a01b03161461131f5760405162461bcd60e51b81526004016109fa906130ba565b601355565b60606002805461090c9061323a565b6001600160a01b03821633141561138c5760405162461bcd60e51b815260206004820152601a60248201527f455243373231413a20617070726f766520746f2063616c6c657200000000000060448201526064016109fa565b3360008181526006602090815260408083206001600160a01b03871680855290835292819020805460ff191686151590811790915590519081529192917f17307eab39ab6107e8899845ad3d59bd9653f200f220920489ca2b5937696c31910160405180910390a35050565b60606000611405836110ac565b90506000816001600160401b03811115611421576114216132e6565b60405190808252806020026020018201604052801561144a578160200160208202803683370190505b50905060005b82811015611491576114628582610c63565b828281518110611474576114746132d0565b60209081029190910101528061148981613275565b915050611450565b509392505050565b6114a484848461194b565b6114b084848484611f52565b6114cc5760405162461bcd60e51b81526004016109fa906130ef565b50505050565b6114da61108a565b156114f75760405162461bcd60e51b81526004016109fa90613090565b6002601254141561154a5760405162461bcd60e51b815260206004820152601f60248201527f5265656e7472616e637947756172643a207265656e7472616e742063616c6c0060448201526064016109fa565b6002601255826115905760405162461bcd60e51b8152602060048201526011602482015270616d6f756e7420746f6f206c6974746c6560781b60448201526064016109fa565b61159d610d05600261316d565b836115a760005490565b6115b1919061316d565b106115ce5760405162461bcd60e51b81526004016109fa90612fef565b60085460ff16156115e9576115e483838361205f565b6115f2565b6115f2836121b8565b5050600160125550565b336116056112e1565b6001600160a01b03161461162b5760405162461bcd60e51b81526004016109fa906130ba565b801561163957610e56612240565b610e566122b7565b6060601561164e83612336565b60405160200161165f929190612e26565b6040516020818303038152906040529050919050565b60606015805461090c9061323a565b3361168d6112e1565b6001600160a01b0316146116b35760405162461bcd60e51b81526004016109fa906130ba565b610b2e6015838361295f565b336116c86112e1565b6001600160a01b0316146116ee5760405162461bcd60e51b81526004016109fa906130ba565b6001600160a01b0381166117535760405162461bcd60e51b815260206004820152602660248201527f4f776e61626c653a206e6577206f776e657220697320746865207a65726f206160448201526564647265737360d01b60648201526084016109fa565b610e5681611ed0565b336117656112e1565b6001600160a01b03161461178b5760405162461bcd60e51b81526004016109fa906130ba565b601455565b60008281526005602052604080822080546001600160a01b0319166001600160a01b0387811691821790925591518593918516917f8c5be1e5ebec7d5bd14f71427d1e84f3dd0314c0f7b2291e5b200ac8c7c3b92591a4505050565b600a546001600160a01b0384166000908152600c6020526040812054909183916118169086613199565b6118209190613185565b61182a91906131e0565b949350505050565b804710156118825760405162461bcd60e51b815260206004820152601d60248201527f416464726573733a20696e73756666696369656e742062616c616e636500000060448201526064016109fa565b6000826001600160a01b03168260405160006040518083038185875af1925050503d80600081146118cf576040519150601f19603f3d011682016040523d82523d6000602084013e6118d4565b606091505b5050905080610b2e5760405162461bcd60e51b815260206004820152603a60248201527f416464726573733a20756e61626c6520746f2073656e642076616c75652c207260448201527f6563697069656e74206d6179206861766520726576657274656400000000000060648201526084016109fa565b600061195682611d27565b80519091506000906001600160a01b0316336001600160a01b0316148061198d5750336119828461098f565b6001600160a01b0316145b8061199f5750815161199f9033610822565b905080611a095760405162461bcd60e51b815260206004820152603260248201527f455243373231413a207472616e736665722063616c6c6572206973206e6f74206044820152711bdddb995c881b9bdc88185c1c1c9bdd995960721b60648201526084016109fa565b846001600160a01b031682600001516001600160a01b031614611a7d5760405162461bcd60e51b815260206004820152602660248201527f455243373231413a207472616e736665722066726f6d20696e636f72726563746044820152651037bbb732b960d11b60648201526084016109fa565b6001600160a01b038416611ae15760405162461bcd60e51b815260206004820152602560248201527f455243373231413a207472616e7366657220746f20746865207a65726f206164604482015264647265737360d81b60648201526084016109fa565b611af16000848460000151611790565b6001600160a01b0385166000908152600460205260408120805460019290611b239084906001600160801b03166131b8565b82546101009290920a6001600160801b038181021990931691831602179091556001600160a01b03861660009081526004602052604081208054600194509092611b6f91859116613142565b82546001600160801b039182166101009390930a9283029190920219909116179055506040805180820182526001600160a01b0380871682526001600160401b03428116602080850191825260008981526003909152948520935184549151909216600160a01b026001600160e01b03199091169190921617179055611bf684600161316d565b6000818152600360205260409020549091506001600160a01b0316611c8757611c20816000541190565b15611c875760408051808201825284516001600160a01b0390811682526020808701516001600160401b039081168285019081526000878152600390935294909120925183549451909116600160a01b026001600160e01b03199094169116179190911790555b83856001600160a01b0316876001600160a01b03167fddf252ad1be2c89b69c2b068fc378daa952ba7f163c4a11628f55a4df523b3ef60405160405180910390a45b505050505050565b610b2e8363a9059cbb60e01b8484604051602401611cf0929190612efc565b60408051601f198184030181529190526020810180516001600160e01b03166001600160e01b031990931692909217909152612433565b6040805180820190915260008082526020820152611d46826000541190565b611da55760405162461bcd60e51b815260206004820152602a60248201527f455243373231413a206f776e657220717565727920666f72206e6f6e657869736044820152693a32b73a103a37b5b2b760b11b60648201526084016109fa565b60007f00000000000000000000000000000000000000000000000000000000000000008310611e0657611df87f0000000000000000000000000000000000000000000000000000000000000000846131e0565b611e0390600161316d565b90505b825b818110611e6f576000818152600360209081526040918290208251808401909352546001600160a01b038116808452600160a01b9091046001600160401b03169183019190915215611e5c57949350505050565b5080611e6781613223565b915050611e08565b5060405162461bcd60e51b815260206004820152602f60248201527f455243373231413a20756e61626c6520746f2064657465726d696e652074686560448201526e1037bbb732b91037b3103a37b5b2b760891b60648201526084016109fa565b601180546001600160a01b038381166001600160a01b0319831681179093556040519116919082907f8be0079c531659141344cd1fd0a4f28419497f9722a3daafe3b4186f6b6457e090600090a35050565b600082611f2f8584612505565b14949350505050565b6112dd828260405180602001604052806000815250612571565b60006001600160a01b0384163b1561205457604051630a85bd0160e11b81526001600160a01b0385169063150b7a0290611f96903390899088908890600401612f15565b602060405180830381600087803b158015611fb057600080fd5b505af1925050508015611fe0575060408051601f3d908101601f19168201909252611fdd91810190612cd0565b60015b61203a573d80801561200e576040519150601f19603f3d011682016040523d82523d6000602084013e612013565b606091505b5080516120325760405162461bcd60e51b81526004016109fa906130ef565b805181602001fd5b6001600160e01b031916630a85bd0160e11b14905061182a565b506001949350505050565b818161206c8282336111ae565b6120af5760405162461bcd60e51b8152602060048201526014602482015273105b1b1bdddb1a5cdd0e881b9bdd08199bdd5b9960621b60448201526064016109fa565b600385106120f75760405162461bcd60e51b815260206004820152601560248201527430b6b7bab73a1031b0b713ba1032bc31b2b2b2101960591b60448201526064016109fa565b336000908152601660205260409020546002116121565760405162461bcd60e51b815260206004820152601d60248201527f65786365656465642077686974656c697374206d696e742071756f746100000060448201526064016109fa565b846014546121649190613199565b34146121825760405162461bcd60e51b81526004016109fa90613065565b33600090815260166020526040812080548792906121a190849061316d565b909155506121b190503386611f38565b5050505050565b6121c46005600161316d565b811061220a5760405162461bcd60e51b8152602060048201526015602482015274616d6f756e742063616e277420657863656564203560581b60448201526064016109fa565b806013546122189190613199565b34146122365760405162461bcd60e51b81526004016109fa90613065565b610e563382611f38565b61224861108a565b156122655760405162461bcd60e51b81526004016109fa90613090565b6011805460ff60a01b1916600160a01b1790557f62e78cea01bee320cd4e420270b5ea74000d11b0c9f74754ebdbfc544b05a2586122a03390565b6040516122ad9190612ee8565b60405180910390a1565b6122bf61108a565b6123025760405162461bcd60e51b815260206004820152601460248201527314185d5cd8589b194e881b9bdd081c185d5cd95960621b60448201526064016109fa565b6011805460ff60a01b191690557f5db9ee0a495bf2e6ff9c91a7834c1ba4fdd244a5e8aa4e537bd38aeae4b073aa336122a0565b60608161235a5750506040805180820190915260018152600360fc1b602082015290565b8160005b8115612384578061236e81613275565b915061237d9050600a83613185565b915061235e565b6000816001600160401b0381111561239e5761239e6132e6565b6040519080825280601f01601f1916602001820160405280156123c8576020820181803683370190505b5090505b841561182a576123dd6001836131e0565b91506123ea600a86613290565b6123f590603061316d565b60f81b81838151811061240a5761240a6132d0565b60200101906001600160f81b031916908160001a90535061242c600a86613185565b94506123cc565b6000612488826040518060400160405280602081526020017f5361666545524332303a206c6f772d6c6576656c2063616c6c206661696c6564815250856001600160a01b031661284b9092919063ffffffff16565b805190915015610b2e57808060200190518101906124a69190612c7d565b610b2e5760405162461bcd60e51b815260206004820152602a60248201527f5361666545524332303a204552433230206f7065726174696f6e20646964206e6044820152691bdd081cdd58d8d9595960b21b60648201526084016109fa565b600081815b8451811015611491576000858281518110612527576125276132d0565b6020026020010151905080831161254d576000838152602082905260409020925061255e565b600081815260208490526040902092505b508061256981613275565b91505061250a565b6000546001600160a01b0384166125d45760405162461bcd60e51b815260206004820152602160248201527f455243373231413a206d696e7420746f20746865207a65726f206164647265736044820152607360f81b60648201526084016109fa565b6125df816000541190565b1561262c5760405162461bcd60e51b815260206004820152601d60248201527f455243373231413a20746f6b656e20616c7265616479206d696e74656400000060448201526064016109fa565b7f00000000000000000000000000000000000000000000000000000000000000008311156126a75760405162461bcd60e51b815260206004820152602260248201527f455243373231413a207175616e7469747920746f206d696e7420746f6f2068696044820152610ced60f31b60648201526084016109fa565b6001600160a01b0384166000908152600460209081526040918290208251808401845290546001600160801b038082168352600160801b9091041691810191909152815180830190925280519091908190612703908790613142565b6001600160801b031681526020018583602001516127219190613142565b6001600160801b039081169091526001600160a01b0380881660008181526004602090815260408083208751978301518716600160801b029790961696909617909455845180860186529182526001600160401b034281168386019081528883526003909552948120915182549451909516600160a01b026001600160e01b031990941694909216939093179190911790915582905b858110156128405760405182906001600160a01b038916906000907fddf252ad1be2c89b69c2b068fc378daa952ba7f163c4a11628f55a4df523b3ef908290a46128046000888488611f52565b6128205760405162461bcd60e51b81526004016109fa906130ef565b8161282a81613275565b925050808061283890613275565b9150506127b7565b506000819055611cc9565b606061182a8484600085856001600160a01b0385163b6128ad5760405162461bcd60e51b815260206004820152601d60248201527f416464726573733a2063616c6c20746f206e6f6e2d636f6e747261637400000060448201526064016109fa565b600080866001600160a01b031685876040516128c99190612e0a565b60006040518083038185875af1925050503d8060008114612906576040519150601f19603f3d011682016040523d82523d6000602084013e61290b565b606091505b509150915061291b828286612926565b979650505050505050565b6060831561293557508161122f565b8251156129455782518084602001fd5b8160405162461bcd60e51b81526004016109fa9190612f96565b82805461296b9061323a565b90600052602060002090601f01602090048101928261298d57600085556129d3565b82601f106129a65782800160ff198235161785556129d3565b828001600101855582156129d3579182015b828111156129d35782358255916020019190600101906129b8565b506110869291505b8082111561108657600081556001016129db565b60008083601f840112612a0157600080fd5b5081356001600160401b03811115612a1857600080fd5b6020830191508360208260051b8501011115612a3357600080fd5b9250929050565b600060208284031215612a4c57600080fd5b813561122f816132fc565b60008060408385031215612a6a57600080fd5b8235612a75816132fc565b91506020830135612a85816132fc565b809150509250929050565b600080600060608486031215612aa557600080fd5b8335612ab0816132fc565b92506020840135612ac0816132fc565b929592945050506040919091013590565b60008060008060808587031215612ae757600080fd5b8435612af2816132fc565b93506020850135612b02816132fc565b92506040850135915060608501356001600160401b0380821115612b2557600080fd5b818701915087601f830112612b3957600080fd5b813581811115612b4b57612b4b6132e6565b604051601f8201601f19908116603f01168101908382118183101715612b7357612b736132e6565b816040528281528a6020848701011115612b8c57600080fd5b82602086016020830137600060208483010152809550505050505092959194509250565b60008060408385031215612bc357600080fd5b8235612bce816132fc565b91506020830135612a8581613311565b60008060408385031215612bf157600080fd5b8235612bfc816132fc565b946020939093013593505050565b600080600060408486031215612c1f57600080fd5b83356001600160401b03811115612c3557600080fd5b612c41868287016129ef565b9094509250506020840135612c55816132fc565b809150509250925092565b600060208284031215612c7257600080fd5b813561122f81613311565b600060208284031215612c8f57600080fd5b815161122f81613311565b600060208284031215612cac57600080fd5b5035919050565b600060208284031215612cc557600080fd5b813561122f8161331f565b600060208284031215612ce257600080fd5b815161122f8161331f565b60008060208385031215612d0057600080fd5b82356001600160401b0380821115612d1757600080fd5b818501915085601f830112612d2b57600080fd5b813581811115612d3a57600080fd5b866020828501011115612d4c57600080fd5b60209290920196919550909350505050565b600060208284031215612d7057600080fd5b5051919050565b600080600060408486031215612d8c57600080fd5b8335925060208401356001600160401b03811115612da957600080fd5b612db5868287016129ef565b9497909650939450505050565b60008151808452612dda8160208601602086016131f7565b601f01601f19169290920160200192915050565b60008151612e008185602086016131f7565b9290920192915050565b60008251612e1c8184602087016131f7565b9190910192915050565b600080845481600182811c915080831680612e4257607f831692505b6020808410821415612e6257634e487b7160e01b86526022600452602486fd5b818015612e765760018114612e8757612eb4565b60ff19861689528489019650612eb4565b60008b81526020902060005b86811015612eac5781548b820152908501908301612e93565b505084890196505b50505050505061122b612ed7612ed183602f60f81b815260010190565b86612dee565b64173539b7b760d91b815260050190565b6001600160a01b0391909116815260200190565b6001600160a01b03929092168252602082015260400190565b6001600160a01b0385811682528416602082015260408101839052608060608201819052600090612f4890830184612dc2565b9695505050505050565b6020808252825182820181905260009190848201906040850190845b81811015612f8a57835183529284019291840191600101612f6e565b50909695505050505050565b60208152600061122f6020830184612dc2565b60208082526026908201527f5061796d656e7453706c69747465723a206163636f756e7420686173206e6f2060408201526573686172657360d01b606082015260800190565b602080825260119082015270657863656564206d617820737570706c7960781b604082015260600190565b6020808252602b908201527f5061796d656e7453706c69747465723a206163636f756e74206973206e6f742060408201526a191d59481c185e5b595b9d60aa1b606082015260800190565b6020808252601190820152701a5b9cdd59999a58da595b9d08199d5b99607a1b604082015260600190565b60208082526010908201526f14185d5cd8589b194e881c185d5cd95960821b604082015260600190565b6020808252818101527f4f776e61626c653a2063616c6c6572206973206e6f7420746865206f776e6572604082015260600190565b60208082526033908201527f455243373231413a207472616e7366657220746f206e6f6e204552433732315260408201527232b1b2b4bb32b91034b6b83632b6b2b73a32b960691b606082015260800190565b60006001600160801b03828116848216808303821115613164576131646132a4565b01949350505050565b60008219821115613180576131806132a4565b500190565b600082613194576131946132ba565b500490565b60008160001904831182151516156131b3576131b36132a4565b500290565b60006001600160801b03838116908316818110156131d8576131d86132a4565b039392505050565b6000828210156131f2576131f26132a4565b500390565b60005b838110156132125781810151838201526020016131fa565b838111156114cc5750506000910152565b600081613232576132326132a4565b506000190190565b600181811c9082168061324e57607f821691505b6020821081141561326f57634e487b7160e01b600052602260045260246000fd5b50919050565b6000600019821415613289576132896132a4565b5060010190565b60008261329f5761329f6132ba565b500690565b634e487b7160e01b600052601160045260246000fd5b634e487b7160e01b600052601260045260246000fd5b634e487b7160e01b600052603260045260246000fd5b634e487b7160e01b600052604160045260246000fd5b6001600160a01b0381168114610e5657600080fd5b8015158114610e5657600080fd5b6001600160e01b031981168114610e5657600080fdfea264697066735822122068290ec188e03769c8d865aeb53a68142b0c2822bc8a50456408e879fbfa7af564736f6c63430008070033",
  "linkReferences": {},
  "deployedLinkReferences": {}
}