{
  "_format": "hh-sol-artifact-1",
  "contractName": "AzukiApe",
  "sourceName": "contracts/AzukiApe.sol",
  "abi": [
    {
      "inputs": [
        {
          "internalType": "string",
          "name": "__tokenURI",
          "type": "string"
        },
        {
          "internalType": "uint256",
          "name": "_price",
          "type": "uint256"
        },
        {
          "internalType": "address[]",
          "name": "payees",
          "type": "address[]"
        },
        {
          "internalType": "uint256[]",
          "name": "shares",
          "type": "uint256[]"
        }
      ],
      "stateMutability": "nonpayable",
      "type": "constructor"
    },
    {
      "anonymous": false,
      "inputs": [
        {
          "indexed": true,
          "internalType": "address",
          "name": "owner",
          "type": "address"
        },
        {
          "indexed": true,
          "internalType": "address",
          "name": "approved",
          "type": "address"
        },
        {
          "indexed": true,
          "internalType": "uint256",
          "name": "tokenId",
          "type": "uint256"
        }
      ],
      "name": "Approval",
      "type": "event"
    },
    {
      "anonymous": false,
      "inputs": [
        {
          "indexed": true,
          "internalType": "address",
          "name": "owner",
          "type": "address"
        },
        {
          "indexed": true,
          "internalType": "address",
          "name": "operator",
          "type": "address"
        },
        {
          "indexed": false,
          "internalType": "bool",
          "name": "approved",
          "type": "bool"
        }
      ],
      "name": "ApprovalForAll",
      "type": "event"
    },
    {
      "anonymous": false,
      "inputs": [
        {
          "indexed": true,
          "internalType": "contract IERC20",
          "name": "token",
          "type": "address"
        },
        {
          "indexed": false,
          "internalType": "address",
          "name": "to",
          "type": "address"
        },
        {
          "indexed": false,
          "internalType": "uint256",
          "name": "amount",
          "type": "uint256"
        }
      ],
      "name": "ERC20PaymentReleased",
      "type": "event"
    },
    {
      "anonymous": false,
      "inputs": [
        {
          "indexed": true,
          "internalType": "address",
          "name": "previousOwner",
          "type": "address"
        },
        {
          "indexed": true,
          "internalType": "address",
          "name": "newOwner",
          "type": "address"
        }
      ],
      "name": "OwnershipTransferred",
      "type": "event"
    },
    {
      "anonymous": false,
      "inputs": [
        {
          "indexed": false,
          "internalType": "address",
          "name": "account",
          "type": "address"
        }
      ],
      "name": "Paused",
      "type": "event"
    },
    {
      "anonymous": false,
      "inputs": [
        {
          "indexed": false,
          "internalType": "address",
          "name": "account",
          "type": "address"
        },
        {
          "indexed": false,
          "internalType": "uint256",
          "name": "shares",
          "type": "uint256"
        }
      ],
      "name": "PayeeAdded",
      "type": "event"
    },
    {
      "anonymous": false,
      "inputs": [
        {
          "indexed": false,
          "internalType": "address",
          "name": "from",
          "type": "address"
        },
        {
          "indexed": false,
          "internalType": "uint256",
          "name": "amount",
          "type": "uint256"
        }
      ],
      "name": "PaymentReceived",
      "type": "event"
    },
    {
      "anonymous": false,
      "inputs": [
        {
          "indexed": false,
          "internalType": "address",
          "name": "to",
          "type": "address"
        },
        {
          "indexed": false,
          "internalType": "uint256",
          "name": "amount",
          "type": "uint256"
        }
      ],
      "name": "PaymentReleased",
      "type": "event"
    },
    {
      "anonymous": false,
      "inputs": [
        {
          "indexed": true,
          "internalType": "address",
          "name": "from",
          "type": "address"
        },
        {
          "indexed": true,
          "internalType": "address",
          "name": "to",
          "type": "address"
        },
        {
          "indexed": true,
          "internalType": "uint256",
          "name": "tokenId",
          "type": "uint256"
        }
      ],
      "name": "Transfer",
      "type": "event"
    },
    {
      "anonymous": false,
      "inputs": [
        {
          "indexed": false,
          "internalType": "address",
          "name": "account",
          "type": "address"
        }
      ],
      "name": "Unpaused",
      "type": "event"
    },
    {
      "inputs": [
        {
          "internalType": "address",
          "name": "wallet",
          "type": "address"
        },
        {
          "internalType": "uint256",
          "name": "amount",
          "type": "uint256"
        }
      ],
      "name": "airdrop",
      "outputs": [],
      "stateMutability": "nonpayable",
      "type": "function"
    },
    {
      "inputs": [
        {
          "internalType": "address",
          "name": "to",
          "type": "address"
        },
        {
          "internalType": "uint256",
          "name": "tokenId",
          "type": "uint256"
        }
      ],
      "name": "approve",
      "outputs": [],
      "stateMutability": "nonpayable",
      "type": "function"
    },
    {
      "inputs": [
        {
          "internalType": "address",
          "name": "owner",
          "type": "address"
        }
      ],
      "name": "balanceOf",
      "outputs": [
        {
          "internalType": "uint256",
          "name": "",
          "type": "uint256"
        }
      ],
      "stateMutability": "view",
      "type": "function"
    },
    {
      "inputs": [],
      "name": "baseTokenURI",
      "outputs": [
        {
          "internalType": "string",
          "name": "",
          "type": "string"
        }
      ],
      "stateMutability": "view",
      "type": "function"
    },
    {
      "inputs": [],
      "name": "claim",
      "outputs": [],
      "stateMutability": "nonpayable",
      "type": "function"
    },
    {
      "inputs": [
        {
          "internalType": "uint256",
          "name": "tokenId",
          "type": "uint256"
        }
      ],
      "name": "getApproved",
      "outputs": [
        {
          "internalType": "address",
          "name": "",
          "type": "address"
        }
      ],
      "stateMutability": "view",
      "type": "function"
    },
    {
      "inputs": [
        {
          "internalType": "bytes32[]",
          "name": "_proof",
          "type": "bytes32[]"
        },
        {
          "internalType": "address",
          "name": "_address",
          "type": "address"
        }
      ],
      "name": "isAllowed",
      "outputs": [
        {
          "internalType": "bool",
          "name": "",
          "type": "bool"
        }
      ],
      "stateMutability": "view",
      "type": "function"
    },
    {
      "inputs": [
        {
          "internalType": "address",
          "name": "owner",
          "type": "address"
        },
        {
          "internalType": "address",
          "name": "operator",
          "type": "address"
        }
      ],
      "name": "isApprovedForAll",
      "outputs": [
        {
          "internalType": "bool",
          "name": "",
          "type": "bool"
        }
      ],
      "stateMutability": "view",
      "type": "function"
    },
    {
      "inputs": [],
      "name": "merkleRoot",
      "outputs": [
        {
          "internalType": "bytes32",
          "name": "",
          "type": "bytes32"
        }
      ],
      "stateMutability": "view",
      "type": "function"
    },
    {
      "inputs": [
        {
          "internalType": "uint256",
          "name": "amount",
          "type": "uint256"
        },
        {
          "internalType": "bytes32[]",
          "name": "proof",
          "type": "bytes32[]"
        }
      ],
      "name": "mint",
      "outputs": [],
      "stateMutability": "payable",
      "type": "function"
    },
    {
      "inputs": [],
      "name": "name",
      "outputs": [
        {
          "internalType": "string",
          "name": "",
          "type": "string"
        }
      ],
      "stateMutability": "view",
      "type": "function"
    },
    {
      "inputs": [],
      "name": "nextOwnerToExplicitlySet",
      "outputs": [
        {
          "internalType": "uint256",
          "name": "",
          "type": "uint256"
        }
      ],
      "stateMutability": "view",
      "type": "function"
    },
    {
      "inputs": [
        {
          "internalType": "address",
          "name": "owner",
          "type": "address"
        }
      ],
      "name": "owned",
      "outputs": [
        {
          "internalType": "uint256[]",
          "name": "",
          "type": "uint256[]"
        }
      ],
      "stateMutability": "view",
      "type": "function"
    },
    {
      "inputs": [],
      "name": "owner",
      "outputs": [
        {
          "internalType": "address",
          "name": "",
          "type": "address"
        }
      ],
      "stateMutability": "view",
      "type": "function"
    },
    {
      "inputs": [
        {
          "internalType": "uint256",
          "name": "tokenId",
          "type": "uint256"
        }
      ],
      "name": "ownerOf",
      "outputs": [
        {
          "internalType": "address",
          "name": "",
          "type": "address"
        }
      ],
      "stateMutability": "view",
      "type": "function"
    },
    {
      "inputs": [],
      "name": "paused",
      "outputs": [
        {
          "internalType": "bool",
          "name": "",
          "type": "bool"
        }
      ],
      "stateMutability": "view",
      "type": "function"
    },
    {
      "inputs": [
        {
          "internalType": "uint256",
          "name": "index",
          "type": "uint256"
        }
      ],
      "name": "payee",
      "outputs": [
        {
          "internalType": "address",
          "name": "",
          "type": "address"
        }
      ],
      "stateMutability": "view",
      "type": "function"
    },
    {
      "inputs": [],
      "name": "price",
      "outputs": [
        {
          "internalType": "uint256",
          "name": "",
          "type": "uint256"
        }
      ],
      "stateMutability": "view",
      "type": "function"
    },
    {
      "inputs": [
        {
          "internalType": "address payable",
          "name": "account",
          "type": "address"
        }
      ],
      "name": "release",
      "outputs": [],
      "stateMutability": "nonpayable",
      "type": "function"
    },
    {
      "inputs": [
        {
          "internalType": "contract IERC20",
          "name": "token",
          "type": "address"
        },
        {
          "internalType": "address",
          "name": "account",
          "type": "address"
        }
      ],
      "name": "release",
      "outputs": [],
      "stateMutability": "nonpayable",
      "type": "function"
    },
    {
      "inputs": [
        {
          "internalType": "contract IERC20",
          "name": "token",
          "type": "address"
        },
        {
          "internalType": "address",
          "name": "account",
          "type": "address"
        }
      ],
      "name": "released",
      "outputs": [
        {
          "internalType": "uint256",
          "name": "",
          "type": "uint256"
        }
      ],
      "stateMutability": "view",
      "type": "function"
    },
    {
      "inputs": [
        {
          "internalType": "address",
          "name": "account",
          "type": "address"
        }
      ],
      "name": "released",
      "outputs": [
        {
          "internalType": "uint256",
          "name": "",
          "type": "uint256"
        }
      ],
      "stateMutability": "view",
      "type": "function"
    },
    {
      "inputs": [],
      "name": "renounceOwnership",
      "outputs": [],
      "stateMutability": "nonpayable",
      "type": "function"
    },
    {
      "inputs": [],
      "name": "requireAllowlist",
      "outputs": [
        {
          "internalType": "bool",
          "name": "",
          "type": "bool"
        }
      ],
      "stateMutability": "view",
      "type": "function"
    },
    {
      "inputs": [
        {
          "internalType": "address",
          "name": "from",
          "type": "address"
        },
        {
          "internalType": "address",
          "name": "to",
          "type": "address"
        },
        {
          "internalType": "uint256",
          "name": "tokenId",
          "type": "uint256"
        }
      ],
      "name": "safeTransferFrom",
      "outputs": [],
      "stateMutability": "nonpayable",
      "type": "function"
    },
    {
      "inputs": [
        {
          "internalType": "address",
          "name": "from",
          "type": "address"
        },
        {
          "internalType": "address",
          "name": "to",
          "type": "address"
        },
        {
          "internalType": "uint256",
          "name": "tokenId",
          "type": "uint256"
        },
        {
          "internalType": "bytes",
          "name": "_data",
          "type": "bytes"
        }
      ],
      "name": "safeTransferFrom",
      "outputs": [],
      "stateMutability": "nonpayable",
      "type": "function"
    },
    {
      "inputs": [
        {
          "internalType": "address",
          "name": "operator",
          "type": "address"
        },
        {
          "internalType": "bool",
          "name": "approved",
          "type": "bool"
        }
      ],
      "name": "setApprovalForAll",
      "outputs": [],
      "stateMutability": "nonpayable",
      "type": "function"
    },
    {
      "inputs": [
        {
          "internalType": "bytes32",
          "name": "root",
          "type": "bytes32"
        }
      ],
      "name": "setMerkleRoot",
      "outputs": [],
      "stateMutability": "nonpayable",
      "type": "function"
    },
    {
      "inputs": [
        {
          "internalType": "bool",
          "name": "pause",
          "type": "bool"
        }
      ],
      "name": "setPause",
      "outputs": [],
      "stateMutability": "nonpayable",
      "type": "function"
    },
    {
      "inputs": [
        {
          "internalType": "uint256",
          "name": "amount",
          "type": "uint256"
        }
      ],
      "name": "setPrice",
      "outputs": [],
      "stateMutability": "nonpayable",
      "type": "function"
    },
    {
      "inputs": [
        {
          "internalType": "bool",
          "name": "value",
          "type": "bool"
        }
      ],
      "name": "setRequireAllowlist",
      "outputs": [],
      "stateMutability": "nonpayable",
      "type": "function"
    },
    {
      "inputs": [
        {
          "internalType": "string",
          "name": "uri",
          "type": "string"
        }
      ],
      "name": "setTokenURI",
      "outputs": [],
      "stateMutability": "nonpayable",
      "type": "function"
    },
    {
      "inputs": [
        {
          "internalType": "address",
          "name": "account",
          "type": "address"
        }
      ],
      "name": "shares",
      "outputs": [
        {
          "internalType": "uint256",
          "name": "",
          "type": "uint256"
        }
      ],
      "stateMutability": "view",
      "type": "function"
    },
    {
      "inputs": [
        {
          "internalType": "bytes4",
          "name": "interfaceId",
          "type": "bytes4"
        }
      ],
      "name": "supportsInterface",
      "outputs": [
        {
          "internalType": "bool",
          "name": "",
          "type": "bool"
        }
      ],
      "stateMutability": "view",
      "type": "function"
    },
    {
      "inputs": [],
      "name": "symbol",
      "outputs": [
        {
          "internalType": "string",
          "name": "",
          "type": "string"
        }
      ],
      "stateMutability": "view",
      "type": "function"
    },
    {
      "inputs": [
        {
          "internalType": "uint256",
          "name": "index",
          "type": "uint256"
        }
      ],
      "name": "tokenByIndex",
      "outputs": [
        {
          "internalType": "uint256",
          "name": "",
          "type": "uint256"
        }
      ],
      "stateMutability": "view",
      "type": "function"
    },
    {
      "inputs": [
        {
          "internalType": "address",
          "name": "owner",
          "type": "address"
        },
        {
          "internalType": "uint256",
          "name": "index",
          "type": "uint256"
        }
      ],
      "name": "tokenOfOwnerByIndex",
      "outputs": [
        {
          "internalType": "uint256",
          "name": "",
          "type": "uint256"
        }
      ],
      "stateMutability": "view",
      "type": "function"
    },
    {
      "inputs": [
        {
          "internalType": "uint256",
          "name": "_tokenId",
          "type": "uint256"
        }
      ],
      "name": "tokenURI",
      "outputs": [
        {
          "internalType": "string",
          "name": "",
          "type": "string"
        }
      ],
      "stateMutability": "view",
      "type": "function"
    },
    {
      "inputs": [
        {
          "internalType": "contract IERC20",
          "name": "token",
          "type": "address"
        }
      ],
      "name": "totalReleased",
      "outputs": [
        {
          "internalType": "uint256",
          "name": "",
          "type": "uint256"
        }
      ],
      "stateMutability": "view",
      "type": "function"
    },
    {
      "inputs": [],
      "name": "totalReleased",
      "outputs": [
        {
          "internalType": "uint256",
          "name": "",
          "type": "uint256"
        }
      ],
      "stateMutability": "view",
      "type": "function"
    },
    {
      "inputs": [],
      "name": "totalShares",
      "outputs": [
        {
          "internalType": "uint256",
          "name": "",
          "type": "uint256"
        }
      ],
      "stateMutability": "view",
      "type": "function"
    },
    {
      "inputs": [],
      "name": "totalSupply",
      "outputs": [
        {
          "internalType": "uint256",
          "name": "",
          "type": "uint256"
        }
      ],
      "stateMutability": "view",
      "type": "function"
    },
    {
      "inputs": [
        {
          "internalType": "address",
          "name": "from",
          "type": "address"
        },
        {
          "internalType": "address",
          "name": "to",
          "type": "address"
        },
        {
          "internalType": "uint256",
          "name": "tokenId",
          "type": "uint256"
        }
      ],
      "name": "transferFrom",
      "outputs": [],
      "stateMutability": "nonpayable",
      "type": "function"
    },
    {
      "inputs": [
        {
          "internalType": "address",
          "name": "newOwner",
          "type": "address"
        }
      ],
      "name": "transferOwnership",
      "outputs": [],
      "stateMutability": "nonpayable",
      "type": "function"
    },
    {
      "stateMutability": "payable",
      "type": "receive"
    }
  ],
  "bytecode": "0x60a0604052600160005560006007553480156200001b57600080fd5b5060405162003b9e38038062003b9e8339810160408190526200003e9162000688565b828282818160405180604001604052806008815260200167417a756b6941706560c01b815250604051806040016040528060048152602001634141534360e01b815250600560008111620000e95760405162461bcd60e51b815260206004820152602760248201527f455243373231413a206d61782062617463682073697a65206d757374206265206044820152666e6f6e7a65726f60c81b60648201526084015b60405180910390fd5b8251620000fe906001906020860190620004dd565b50815162000114906002906020850190620004dd565b5060805250506008805460ff191660011790558051825114620001955760405162461bcd60e51b815260206004820152603260248201527f5061796d656e7453706c69747465723a2070617965657320616e6420736861726044820152710cae640d8cadccee8d040dad2e6dac2e8c6d60731b6064820152608401620000e0565b6000825111620001e85760405162461bcd60e51b815260206004820152601a60248201527f5061796d656e7453706c69747465723a206e6f207061796565730000000000006044820152606401620000e0565b60005b825181101562000254576200023f8382815181106200020e576200020e62000883565b60200260200101518383815181106200022b576200022b62000883565b60200260200101516200029d60201b60201c565b806200024b816200084f565b915050620001eb565b505050601192909255506200026b9050336200048b565b6012805460ff60a01b191690556001601355835162000292906014906020870190620004dd565b5050505050620008af565b6001600160a01b0382166200030a5760405162461bcd60e51b815260206004820152602c60248201527f5061796d656e7453706c69747465723a206163636f756e74206973207468652060448201526b7a65726f206164647265737360a01b6064820152608401620000e0565b600081116200035c5760405162461bcd60e51b815260206004820152601d60248201527f5061796d656e7453706c69747465723a207368617265732061726520300000006044820152606401620000e0565b6001600160a01b0382166000908152600c602052604090205415620003d85760405162461bcd60e51b815260206004820152602b60248201527f5061796d656e7453706c69747465723a206163636f756e7420616c726561647960448201526a206861732073686172657360a81b6064820152608401620000e0565b600e8054600181019091557fbb7b4a454dc3493923482f07822329ed19e8244eff582cc204f8554c3620c3fd0180546001600160a01b0319166001600160a01b0384169081179091556000908152600c60205260409020819055600a5462000442908290620007f7565b600a55604080516001600160a01b0384168152602081018390527f40c340f65e17194d14ddddb073d3c9f888e3cb52b5aae0c6c7706b4fbc905fac910160405180910390a15050565b601280546001600160a01b038381166001600160a01b0319831681179093556040519116919082907f8be0079c531659141344cd1fd0a4f28419497f9722a3daafe3b4186f6b6457e090600090a35050565b828054620004eb9062000812565b90600052602060002090601f0160209004810192826200050f57600085556200055a565b82601f106200052a57805160ff19168380011785556200055a565b828001600101855582156200055a579182015b828111156200055a5782518255916020019190600101906200053d565b50620005689291506200056c565b5090565b5b808211156200056857600081556001016200056d565b600082601f8301126200059557600080fd5b81516020620005ae620005a883620007d1565b6200079e565b80838252828201915082860187848660051b8901011115620005cf57600080fd5b6000805b86811015620006065782516001600160a01b0381168114620005f3578283fd5b85529385019391850191600101620005d3565b509198975050505050505050565b600082601f8301126200062657600080fd5b8151602062000639620005a883620007d1565b80838252828201915082860187848660051b89010111156200065a57600080fd5b60005b858110156200067b578151845292840192908401906001016200065d565b5090979650505050505050565b600080600080608085870312156200069f57600080fd5b84516001600160401b0380821115620006b757600080fd5b818701915087601f830112620006cc57600080fd5b815181811115620006e157620006e162000899565b6020620006f7601f8301601f191682016200079e565b8281528a828487010111156200070c57600080fd5b60005b838110156200072c5785810183015182820184015282016200070f565b838111156200073e5760008385840101525b509089015160408a01519198509650925050808211156200075e57600080fd5b6200076c8883890162000583565b935060608701519150808211156200078357600080fd5b50620007928782880162000614565b91505092959194509250565b604051601f8201601f191681016001600160401b0381118282101715620007c957620007c962000899565b604052919050565b60006001600160401b03821115620007ed57620007ed62000899565b5060051b60200190565b600082198211156200080d576200080d6200086d565b500190565b600181811c908216806200082757607f821691505b602082108114156200084957634e487b7160e01b600052602260045260246000fd5b50919050565b60006000198214156200086657620008666200086d565b5060010190565b634e487b7160e01b600052601160045260246000fd5b634e487b7160e01b600052603260045260246000fd5b634e487b7160e01b600052604160045260246000fd5b6080516132c5620008d960003960008181611d8601528181611db001526125b301526132c56000f3fe60806040526004361061026b5760003560e01c80637fac209411610144578063ba41b0c6116100b6578063d7224ba01161007a578063d7224ba01461075a578063d79779b214610770578063e0df5b6f146107a6578063e33b7de3146107c6578063e985e9c5146107db578063f2fde38b1461082457600080fd5b8063ba41b0c6146106bc578063bedb86fb146106cf578063c87b56dd146106ef578063ce7c2ac21461070f578063d547cfb71461074557600080fd5b806395d89b411161010857806395d89b41146105ee5780639852595c14610603578063a035b1fe14610639578063a22cb4651461064f578063b1ab93171461066f578063b88d4fde1461069c57600080fd5b80637fac2094146105595780638b83209b146105795780638ba4cc3c146105995780638da5cb5b146105b957806391b7f5ed146105ce57600080fd5b8063406072a9116101dd5780634f6ccce7116101a15780634f6ccce7146104af5780635c975abb146104cf5780636352211e146104e457806370a0823114610504578063715018a6146105245780637cb647591461053957600080fd5b8063406072a91461041a57806342842e0e1461043a578063429766a91461045a57806348b750441461047a5780634e71d92d1461049a57600080fd5b806318160ddd1161022f57806318160ddd14610370578063191655871461038f57806323b872dd146103af5780632eb4a7ab146103cf5780632f745c59146103e55780633a98ef391461040557600080fd5b806301ffc9a7146102b057806306fdde03146102e5578063081812fc14610307578063095ea7b3146103345780630c9a94d21461035657600080fd5b366102ab577f6ef95f06320e7a25a04a175ca677b7052bdd97131872c2192525a629f51be77033346040516102a1929190612e81565b60405180910390a1005b600080fd5b3480156102bc57600080fd5b506102d06102cb366004612c38565b610844565b60405190151581526020015b60405180910390f35b3480156102f157600080fd5b506102fa6108b1565b6040516102dc9190612f1b565b34801561031357600080fd5b50610327610322366004612c1f565b610943565b6040516102dc9190612e6d565b34801561034057600080fd5b5061035461034f366004612b63565b6109d3565b005b34801561036257600080fd5b506008546102d09060ff1681565b34801561037c57600080fd5b506000545b6040519081526020016102dc565b34801561039b57600080fd5b506103546103aa3660046129bf565b610ae7565b3480156103bb57600080fd5b506103546103ca366004612a15565b610c0c565b3480156103db57600080fd5b5061038160095481565b3480156103f157600080fd5b50610381610400366004612b63565b610c17565b34801561041157600080fd5b50600a54610381565b34801561042657600080fd5b506103816104353660046129dc565b610d84565b34801561044657600080fd5b50610354610455366004612a15565b610daf565b34801561046657600080fd5b50610354610475366004612be5565b610dca565b34801561048657600080fd5b506103546104953660046129dc565b610e0d565b3480156104a657600080fd5b50610354610fd1565b3480156104bb57600080fd5b506103816104ca366004612c1f565b610fdc565b3480156104db57600080fd5b506102d061103e565b3480156104f057600080fd5b506103276104ff366004612c1f565b61104e565b34801561051057600080fd5b5061038161051f3660046129bf565b611060565b34801561053057600080fd5b506103546110f1565b34801561054557600080fd5b50610354610554366004612c1f565b61112a565b34801561056557600080fd5b506102d0610574366004612b8f565b611162565b34801561058557600080fd5b50610327610594366004612c1f565b6111ea565b3480156105a557600080fd5b506103546105b4366004612b63565b61121a565b3480156105c557600080fd5b50610327611295565b3480156105da57600080fd5b506103546105e9366004612c1f565b6112a4565b3480156105fa57600080fd5b506102fa6112dc565b34801561060f57600080fd5b5061038161061e3660046129bf565b6001600160a01b03166000908152600d602052604090205490565b34801561064557600080fd5b5061038160115481565b34801561065b57600080fd5b5061035461066a366004612b35565b6112eb565b34801561067b57600080fd5b5061068f61068a3660046129bf565b6113b0565b6040516102dc9190612ed7565b3480156106a857600080fd5b506103546106b7366004612a56565b611451565b6103546106ca366004612cfc565b61148a565b3480156106db57600080fd5b506103546106ea366004612be5565b611604565b3480156106fb57600080fd5b506102fa61070a366004612c1f565b611649565b34801561071b57600080fd5b5061038161072a3660046129bf565b6001600160a01b03166000908152600c602052604090205490565b34801561075157600080fd5b506102fa61167d565b34801561076657600080fd5b5061038160075481565b34801561077c57600080fd5b5061038161078b3660046129bf565b6001600160a01b03166000908152600f602052604090205490565b3480156107b257600080fd5b506103546107c1366004612c72565b61168c565b3480156107d257600080fd5b50600b54610381565b3480156107e757600080fd5b506102d06107f63660046129dc565b6001600160a01b03918216600090815260066020908152604080832093909416825291909152205460ff1690565b34801561083057600080fd5b5061035461083f3660046129bf565b6116c7565b60006001600160e01b031982166380ac58cd60e01b148061087557506001600160e01b03198216635b5e139f60e01b145b8061089057506001600160e01b0319821663780e9d6360e01b145b806108ab57506301ffc9a760e01b6001600160e01b03198316145b92915050565b6060600180546108c090613194565b80601f01602080910402602001604051908101604052809291908181526020018280546108ec90613194565b80156109395780601f1061090e57610100808354040283529160200191610939565b820191906000526020600020905b81548152906001019060200180831161091c57829003601f168201915b5050505050905090565b6000610950826000541190565b6109b75760405162461bcd60e51b815260206004820152602d60248201527f455243373231413a20617070726f76656420717565727920666f72206e6f6e6560448201526c3c34b9ba32b73a103a37b5b2b760991b60648201526084015b60405180910390fd5b506000908152600560205260409020546001600160a01b031690565b60006109de8261104e565b9050806001600160a01b0316836001600160a01b03161415610a4d5760405162461bcd60e51b815260206004820152602260248201527f455243373231413a20617070726f76616c20746f2063757272656e74206f776e60448201526132b960f11b60648201526084016109ae565b336001600160a01b0382161480610a695750610a6981336107f6565b610ad75760405162461bcd60e51b815260206004820152603960248201527f455243373231413a20617070726f76652063616c6c6572206973206e6f74206f6044820152781ddb995c881b9bdc88185c1c1c9bdd995908199bdc88185b1b603a1b60648201526084016109ae565b610ae2838383611764565b505050565b6001600160a01b0381166000908152600c6020526040902054610b1c5760405162461bcd60e51b81526004016109ae90612f2e565b6000610b27600b5490565b610b3190476130c7565b90506000610b5e8383610b59866001600160a01b03166000908152600d602052604090205490565b6117c0565b905080610b7d5760405162461bcd60e51b81526004016109ae90612f9f565b6001600160a01b0383166000908152600d602052604081208054839290610ba59084906130c7565b9250508190555080600b6000828254610bbe91906130c7565b90915550610bce90508382611806565b7fdf20fd1e76bc69d672e4814fafb2c449bba3a5369d8359adf9e05e6fde87b0568382604051610bff929190612e81565b60405180910390a1505050565b610ae283838361191f565b6000610c2283611060565b8210610c7b5760405162461bcd60e51b815260206004820152602260248201527f455243373231413a206f776e657220696e646578206f7574206f6620626f756e604482015261647360f01b60648201526084016109ae565b600080549080805b83811015610d24576000818152600360209081526040918290208251808401909352546001600160a01b038116808452600160a01b9091046001600160401b03169183019190915215610cd557805192505b876001600160a01b0316836001600160a01b03161415610d115786841415610d03575093506108ab92505050565b83610d0d816131cf565b9450505b5080610d1c816131cf565b915050610c83565b5060405162461bcd60e51b815260206004820152602e60248201527f455243373231413a20756e61626c6520746f2067657420746f6b656e206f662060448201526d0deeedccae440c4f240d2dcc8caf60931b60648201526084016109ae565b6001600160a01b03918216600090815260106020908152604080832093909416825291909152205490565b610ae283838360405180602001604052806000815250611451565b33610dd3611295565b6001600160a01b031614610df95760405162461bcd60e51b81526004016109ae90613014565b6008805460ff191682151517905550565b50565b6001600160a01b0381166000908152600c6020526040902054610e425760405162461bcd60e51b81526004016109ae90612f2e565b6001600160a01b0382166000908152600f60205260408120546040516370a0823160e01b81526001600160a01b038516906370a0823190610e87903090600401612e6d565b60206040518083038186803b158015610e9f57600080fd5b505afa158015610eb3573d6000803e3d6000fd5b505050506040513d601f19601f82011682018060405250810190610ed79190612ce3565b610ee191906130c7565b90506000610ef48383610b598787610d84565b905080610f135760405162461bcd60e51b81526004016109ae90612f9f565b6001600160a01b03808516600090815260106020908152604080832093871683529290529081208054839290610f4a9084906130c7565b90915550506001600160a01b0384166000908152600f602052604081208054839290610f779084906130c7565b90915550610f889050848483611ca5565b836001600160a01b03167f3be5b7a71e84ed12875d241991c70855ac5817d847039e17a9d895c1ceb0f18a8483604051610fc3929190612e81565b60405180910390a250505050565b610fda33611cfb565b565b60008054821061103a5760405162461bcd60e51b815260206004820152602360248201527f455243373231413a20676c6f62616c20696e646578206f7574206f6620626f756044820152626e647360e81b60648201526084016109ae565b5090565b601254600160a01b900460ff1690565b600061105982611d04565b5192915050565b60006001600160a01b0382166110cc5760405162461bcd60e51b815260206004820152602b60248201527f455243373231413a2062616c616e636520717565727920666f7220746865207a60448201526a65726f206164647265737360a81b60648201526084016109ae565b506001600160a01b03166000908152600460205260409020546001600160801b031690565b336110fa611295565b6001600160a01b0316146111205760405162461bcd60e51b81526004016109ae90613014565b610fda6000611ead565b33611133611295565b6001600160a01b0316146111595760405162461bcd60e51b81526004016109ae90613014565b610e0a81600955565b6040516bffffffffffffffffffffffff19606083901b16602082015260009081906034016040516020818303038152906040528051906020012090506111df858580806020026020016040519081016040528093929190818152602001838360200280828437600092019190915250506009549150849050611eff565b9150505b9392505050565b6000600e82815481106111ff576111ff61322a565b6000918252602090912001546001600160a01b031692915050565b33611223611295565b6001600160a01b0316146112495760405162461bcd60e51b81526004016109ae90613014565b611256610d0560016130c7565b8161126060005490565b61126a91906130c7565b106112875760405162461bcd60e51b81526004016109ae90612f74565b6112918282611f15565b5050565b6012546001600160a01b031690565b336112ad611295565b6001600160a01b0316146112d35760405162461bcd60e51b81526004016109ae90613014565b610e0a81601155565b6060600280546108c090613194565b6001600160a01b0382163314156113445760405162461bcd60e51b815260206004820152601a60248201527f455243373231413a20617070726f766520746f2063616c6c657200000000000060448201526064016109ae565b3360008181526006602090815260408083206001600160a01b03871680855290835292819020805460ff191686151590811790915590519081529192917f17307eab39ab6107e8899845ad3d59bd9653f200f220920489ca2b5937696c31910160405180910390a35050565b606060006113bd83611060565b90506000816001600160401b038111156113d9576113d9613240565b604051908082528060200260200182016040528015611402578160200160208202803683370190505b50905060005b828110156114495761141a8582610c17565b82828151811061142c5761142c61322a565b602090810291909101015280611441816131cf565b915050611408565b509392505050565b61145c84848461191f565b61146884848484611f2f565b6114845760405162461bcd60e51b81526004016109ae90613049565b50505050565b61149261103e565b156114af5760405162461bcd60e51b81526004016109ae90612fea565b600260135414156115025760405162461bcd60e51b815260206004820152601f60248201527f5265656e7472616e637947756172643a207265656e7472616e742063616c6c0060448201526064016109ae565b6002601355826115485760405162461bcd60e51b8152602060048201526011602482015270616d6f756e7420746f6f206c6974746c6560781b60448201526064016109ae565b611555610d0560026130c7565b8361155f60005490565b61156991906130c7565b106115865760405162461bcd60e51b81526004016109ae90612f74565b8260115461159491906130f3565b34146115d65760405162461bcd60e51b81526020600482015260116024820152701a5b9cdd59999a58da595b9d08199d5b99607a1b60448201526064016109ae565b60085460ff16156115f1576115ec83838361203c565b6115fa565b6115fa83612169565b5050600160135550565b3361160d611295565b6001600160a01b0316146116335760405162461bcd60e51b81526004016109ae90613014565b801561164157610e0a6121c5565b610e0a61223c565b60606014611656836122bb565b604051602001611667929190612dab565b6040516020818303038152906040529050919050565b6060601480546108c090613194565b33611695611295565b6001600160a01b0316146116bb5760405162461bcd60e51b81526004016109ae90613014565b610ae2601483836128e4565b336116d0611295565b6001600160a01b0316146116f65760405162461bcd60e51b81526004016109ae90613014565b6001600160a01b03811661175b5760405162461bcd60e51b815260206004820152602660248201527f4f776e61626c653a206e6577206f776e657220697320746865207a65726f206160448201526564647265737360d01b60648201526084016109ae565b610e0a81611ead565b60008281526005602052604080822080546001600160a01b0319166001600160a01b0387811691821790925591518593918516917f8c5be1e5ebec7d5bd14f71427d1e84f3dd0314c0f7b2291e5b200ac8c7c3b92591a4505050565b600a546001600160a01b0384166000908152600c6020526040812054909183916117ea90866130f3565b6117f491906130df565b6117fe919061313a565b949350505050565b804710156118565760405162461bcd60e51b815260206004820152601d60248201527f416464726573733a20696e73756666696369656e742062616c616e636500000060448201526064016109ae565b6000826001600160a01b03168260405160006040518083038185875af1925050503d80600081146118a3576040519150601f19603f3d011682016040523d82523d6000602084013e6118a8565b606091505b5050905080610ae25760405162461bcd60e51b815260206004820152603a60248201527f416464726573733a20756e61626c6520746f2073656e642076616c75652c207260448201527f6563697069656e74206d6179206861766520726576657274656400000000000060648201526084016109ae565b600061192a82611d04565b80519091506000906001600160a01b0316336001600160a01b0316148061196157503361195684610943565b6001600160a01b0316145b806119735750815161197390336107f6565b9050806119dd5760405162461bcd60e51b815260206004820152603260248201527f455243373231413a207472616e736665722063616c6c6572206973206e6f74206044820152711bdddb995c881b9bdc88185c1c1c9bdd995960721b60648201526084016109ae565b846001600160a01b031682600001516001600160a01b031614611a515760405162461bcd60e51b815260206004820152602660248201527f455243373231413a207472616e736665722066726f6d20696e636f72726563746044820152651037bbb732b960d11b60648201526084016109ae565b6001600160a01b038416611ab55760405162461bcd60e51b815260206004820152602560248201527f455243373231413a207472616e7366657220746f20746865207a65726f206164604482015264647265737360d81b60648201526084016109ae565b611ac56000848460000151611764565b6001600160a01b0385166000908152600460205260408120805460019290611af79084906001600160801b0316613112565b82546101009290920a6001600160801b038181021990931691831602179091556001600160a01b03861660009081526004602052604081208054600194509092611b439185911661309c565b82546001600160801b039182166101009390930a9283029190920219909116179055506040805180820182526001600160a01b0380871682526001600160401b03428116602080850191825260008981526003909152948520935184549151909216600160a01b026001600160e01b03199091169190921617179055611bca8460016130c7565b6000818152600360205260409020549091506001600160a01b0316611c5b57611bf4816000541190565b15611c5b5760408051808201825284516001600160a01b0390811682526020808701516001600160401b039081168285019081526000878152600390935294909120925183549451909116600160a01b026001600160e01b03199094169116179190911790555b83856001600160a01b0316876001600160a01b03167fddf252ad1be2c89b69c2b068fc378daa952ba7f163c4a11628f55a4df523b3ef60405160405180910390a45b505050505050565b610ae28363a9059cbb60e01b8484604051602401611cc4929190612e81565b60408051601f198184030181529190526020810180516001600160e01b03166001600160e01b0319909316929092179091526123b8565b610e0a81610ae7565b6040805180820190915260008082526020820152611d23826000541190565b611d825760405162461bcd60e51b815260206004820152602a60248201527f455243373231413a206f776e657220717565727920666f72206e6f6e657869736044820152693a32b73a103a37b5b2b760b11b60648201526084016109ae565b60007f00000000000000000000000000000000000000000000000000000000000000008310611de357611dd57f00000000000000000000000000000000000000000000000000000000000000008461313a565b611de09060016130c7565b90505b825b818110611e4c576000818152600360209081526040918290208251808401909352546001600160a01b038116808452600160a01b9091046001600160401b03169183019190915215611e3957949350505050565b5080611e448161317d565b915050611de5565b5060405162461bcd60e51b815260206004820152602f60248201527f455243373231413a20756e61626c6520746f2064657465726d696e652074686560448201526e1037bbb732b91037b3103a37b5b2b760891b60648201526084016109ae565b601280546001600160a01b038381166001600160a01b0319831681179093556040519116919082907f8be0079c531659141344cd1fd0a4f28419497f9722a3daafe3b4186f6b6457e090600090a35050565b600082611f0c858461248a565b14949350505050565b6112918282604051806020016040528060008152506124f6565b60006001600160a01b0384163b1561203157604051630a85bd0160e11b81526001600160a01b0385169063150b7a0290611f73903390899088908890600401612e9a565b602060405180830381600087803b158015611f8d57600080fd5b505af1925050508015611fbd575060408051601f3d908101601f19168201909252611fba91810190612c55565b60015b612017573d808015611feb576040519150601f19603f3d011682016040523d82523d6000602084013e611ff0565b606091505b50805161200f5760405162461bcd60e51b81526004016109ae90613049565b805181602001fd5b6001600160e01b031916630a85bd0160e11b1490506117fe565b506001949350505050565b8181612049828233611162565b61208c5760405162461bcd60e51b8152602060048201526014602482015273105b1b1bdddb1a5cdd0e881b9bdd08199bdd5b9960621b60448201526064016109ae565b600385106120d45760405162461bcd60e51b815260206004820152601560248201527430b6b7bab73a1031b0b713ba1032bc31b2b2b2101960591b60448201526064016109ae565b336000908152601560205260409020546002116121335760405162461bcd60e51b815260206004820152601d60248201527f65786365656465642077686974656c697374206d696e742071756f746100000060448201526064016109ae565b33600090815260156020526040812080548792906121529084906130c7565b9091555061216290503386611f15565b5050505050565b612175600560016130c7565b81106121bb5760405162461bcd60e51b8152602060048201526015602482015274616d6f756e742063616e277420657863656564203560581b60448201526064016109ae565b610e0a3382611f15565b6121cd61103e565b156121ea5760405162461bcd60e51b81526004016109ae90612fea565b6012805460ff60a01b1916600160a01b1790557f62e78cea01bee320cd4e420270b5ea74000d11b0c9f74754ebdbfc544b05a2586122253390565b6040516122329190612e6d565b60405180910390a1565b61224461103e565b6122875760405162461bcd60e51b815260206004820152601460248201527314185d5cd8589b194e881b9bdd081c185d5cd95960621b60448201526064016109ae565b6012805460ff60a01b191690557f5db9ee0a495bf2e6ff9c91a7834c1ba4fdd244a5e8aa4e537bd38aeae4b073aa33612225565b6060816122df5750506040805180820190915260018152600360fc1b602082015290565b8160005b811561230957806122f3816131cf565b91506123029050600a836130df565b91506122e3565b6000816001600160401b0381111561232357612323613240565b6040519080825280601f01601f19166020018201604052801561234d576020820181803683370190505b5090505b84156117fe5761236260018361313a565b915061236f600a866131ea565b61237a9060306130c7565b60f81b81838151811061238f5761238f61322a565b60200101906001600160f81b031916908160001a9053506123b1600a866130df565b9450612351565b600061240d826040518060400160405280602081526020017f5361666545524332303a206c6f772d6c6576656c2063616c6c206661696c6564815250856001600160a01b03166127d09092919063ffffffff16565b805190915015610ae2578080602001905181019061242b9190612c02565b610ae25760405162461bcd60e51b815260206004820152602a60248201527f5361666545524332303a204552433230206f7065726174696f6e20646964206e6044820152691bdd081cdd58d8d9595960b21b60648201526084016109ae565b600081815b84518110156114495760008582815181106124ac576124ac61322a565b602002602001015190508083116124d257600083815260208290526040902092506124e3565b600081815260208490526040902092505b50806124ee816131cf565b91505061248f565b6000546001600160a01b0384166125595760405162461bcd60e51b815260206004820152602160248201527f455243373231413a206d696e7420746f20746865207a65726f206164647265736044820152607360f81b60648201526084016109ae565b612564816000541190565b156125b15760405162461bcd60e51b815260206004820152601d60248201527f455243373231413a20746f6b656e20616c7265616479206d696e74656400000060448201526064016109ae565b7f000000000000000000000000000000000000000000000000000000000000000083111561262c5760405162461bcd60e51b815260206004820152602260248201527f455243373231413a207175616e7469747920746f206d696e7420746f6f2068696044820152610ced60f31b60648201526084016109ae565b6001600160a01b0384166000908152600460209081526040918290208251808401845290546001600160801b038082168352600160801b909104169181019190915281518083019092528051909190819061268890879061309c565b6001600160801b031681526020018583602001516126a6919061309c565b6001600160801b039081169091526001600160a01b0380881660008181526004602090815260408083208751978301518716600160801b029790961696909617909455845180860186529182526001600160401b034281168386019081528883526003909552948120915182549451909516600160a01b026001600160e01b031990941694909216939093179190911790915582905b858110156127c55760405182906001600160a01b038916906000907fddf252ad1be2c89b69c2b068fc378daa952ba7f163c4a11628f55a4df523b3ef908290a46127896000888488611f2f565b6127a55760405162461bcd60e51b81526004016109ae90613049565b816127af816131cf565b92505080806127bd906131cf565b91505061273c565b506000819055611c9d565b60606117fe8484600085856001600160a01b0385163b6128325760405162461bcd60e51b815260206004820152601d60248201527f416464726573733a2063616c6c20746f206e6f6e2d636f6e747261637400000060448201526064016109ae565b600080866001600160a01b0316858760405161284e9190612d8f565b60006040518083038185875af1925050503d806000811461288b576040519150601f19603f3d011682016040523d82523d6000602084013e612890565b606091505b50915091506128a08282866128ab565b979650505050505050565b606083156128ba5750816111e3565b8251156128ca5782518084602001fd5b8160405162461bcd60e51b81526004016109ae9190612f1b565b8280546128f090613194565b90600052602060002090601f0160209004810192826129125760008555612958565b82601f1061292b5782800160ff19823516178555612958565b82800160010185558215612958579182015b8281111561295857823582559160200191906001019061293d565b5061103a9291505b8082111561103a5760008155600101612960565b60008083601f84011261298657600080fd5b5081356001600160401b0381111561299d57600080fd5b6020830191508360208260051b85010111156129b857600080fd5b9250929050565b6000602082840312156129d157600080fd5b81356111e381613256565b600080604083850312156129ef57600080fd5b82356129fa81613256565b91506020830135612a0a81613256565b809150509250929050565b600080600060608486031215612a2a57600080fd5b8335612a3581613256565b92506020840135612a4581613256565b929592945050506040919091013590565b60008060008060808587031215612a6c57600080fd5b8435612a7781613256565b93506020850135612a8781613256565b92506040850135915060608501356001600160401b0380821115612aaa57600080fd5b818701915087601f830112612abe57600080fd5b813581811115612ad057612ad0613240565b604051601f8201601f19908116603f01168101908382118183101715612af857612af8613240565b816040528281528a6020848701011115612b1157600080fd5b82602086016020830137600060208483010152809550505050505092959194509250565b60008060408385031215612b4857600080fd5b8235612b5381613256565b91506020830135612a0a8161326b565b60008060408385031215612b7657600080fd5b8235612b8181613256565b946020939093013593505050565b600080600060408486031215612ba457600080fd5b83356001600160401b03811115612bba57600080fd5b612bc686828701612974565b9094509250506020840135612bda81613256565b809150509250925092565b600060208284031215612bf757600080fd5b81356111e38161326b565b600060208284031215612c1457600080fd5b81516111e38161326b565b600060208284031215612c3157600080fd5b5035919050565b600060208284031215612c4a57600080fd5b81356111e381613279565b600060208284031215612c6757600080fd5b81516111e381613279565b60008060208385031215612c8557600080fd5b82356001600160401b0380821115612c9c57600080fd5b818501915085601f830112612cb057600080fd5b813581811115612cbf57600080fd5b866020828501011115612cd157600080fd5b60209290920196919550909350505050565b600060208284031215612cf557600080fd5b5051919050565b600080600060408486031215612d1157600080fd5b8335925060208401356001600160401b03811115612d2e57600080fd5b612d3a86828701612974565b9497909650939450505050565b60008151808452612d5f816020860160208601613151565b601f01601f19169290920160200192915050565b60008151612d85818560208601613151565b9290920192915050565b60008251612da1818460208701613151565b9190910192915050565b600080845481600182811c915080831680612dc757607f831692505b6020808410821415612de757634e487b7160e01b86526022600452602486fd5b818015612dfb5760018114612e0c57612e39565b60ff19861689528489019650612e39565b60008b81526020902060005b86811015612e315781548b820152908501908301612e18565b505084890196505b5050505050506111df612e5c612e5683602f60f81b815260010190565b86612d73565b64173539b7b760d91b815260050190565b6001600160a01b0391909116815260200190565b6001600160a01b03929092168252602082015260400190565b6001600160a01b0385811682528416602082015260408101839052608060608201819052600090612ecd90830184612d47565b9695505050505050565b6020808252825182820181905260009190848201906040850190845b81811015612f0f57835183529284019291840191600101612ef3565b50909695505050505050565b6020815260006111e36020830184612d47565b60208082526026908201527f5061796d656e7453706c69747465723a206163636f756e7420686173206e6f2060408201526573686172657360d01b606082015260800190565b602080825260119082015270657863656564206d617820737570706c7960781b604082015260600190565b6020808252602b908201527f5061796d656e7453706c69747465723a206163636f756e74206973206e6f742060408201526a191d59481c185e5b595b9d60aa1b606082015260800190565b60208082526010908201526f14185d5cd8589b194e881c185d5cd95960821b604082015260600190565b6020808252818101527f4f776e61626c653a2063616c6c6572206973206e6f7420746865206f776e6572604082015260600190565b60208082526033908201527f455243373231413a207472616e7366657220746f206e6f6e204552433732315260408201527232b1b2b4bb32b91034b6b83632b6b2b73a32b960691b606082015260800190565b60006001600160801b038281168482168083038211156130be576130be6131fe565b01949350505050565b600082198211156130da576130da6131fe565b500190565b6000826130ee576130ee613214565b500490565b600081600019048311821515161561310d5761310d6131fe565b500290565b60006001600160801b0383811690831681811015613132576131326131fe565b039392505050565b60008282101561314c5761314c6131fe565b500390565b60005b8381101561316c578181015183820152602001613154565b838111156114845750506000910152565b60008161318c5761318c6131fe565b506000190190565b600181811c908216806131a857607f821691505b602082108114156131c957634e487b7160e01b600052602260045260246000fd5b50919050565b60006000198214156131e3576131e36131fe565b5060010190565b6000826131f9576131f9613214565b500690565b634e487b7160e01b600052601160045260246000fd5b634e487b7160e01b600052601260045260246000fd5b634e487b7160e01b600052603260045260246000fd5b634e487b7160e01b600052604160045260246000fd5b6001600160a01b0381168114610e0a57600080fd5b8015158114610e0a57600080fd5b6001600160e01b031981168114610e0a57600080fdfea2646970667358221220c30c249aa11048cde055677e03a176976db0664dc79a7c760174294964606ab164736f6c63430008070033",
  "linkReferences": {},
  "deployedLinkReferences": {}
}